:1005680057656C636F6D6520746F20757365210026
:100578002020006D00270032300053706565643A12
:05058800006D2F73005F
:0B04AA00010C00C100C101C102C10330
:10002600E4F5081205E07F801205F87BFF7A057972
:10003600681205427FE87E031200031205C8120506
:10004600AD300467E53464477061E536642C705B57
:10005600E53D642E7055F50874302508F8E6FF7402
:10006600002508F582E43400F583EFF00508E5087D
:10007600B444E5900007E075F00AA4FFA3E02F243E
:10008600F8F52AC39418400DE52A75F0188485F012
:100096002AD2018002C201900009E0F523A3E0F50F
:1000A6002EA3E0F521A3E0F52CD2023000030201D5
:1000B600A92002030201A9B2A0C2027F801205F89C
:1000C600E52A75F00A842430FF12060DE52A75F03C
:1000D6000A84E5F02430FF12060D7F3A12060DAFB2
:1000E6002312060DAF2E12060D7F3A12060DAF2112
:1000F60012060DAF2C12060D7BFF7A0579781205D4
:1001060042900036E0FF12060D900037E0FF12061F
:100116000D900038E0FF12060D900039E0FF120640
:100126000D7BFF7A05797B1205427FC01205F89098
:10013600001CE0FF12060D900011E0FF12060D9064
:100146000012E0FF12060D7FDF12060D900013E08D
:10015600FF12060D900014E0FF12060D7BFF7A05D4
:10016600797D12054290002AE0FF12060D90001ECE
:10017600E0FF12060D90001FE0FF12060D90002012
:10018600E0FF12060D7FDF12060D900021E0FF1240
:10019600060D900022E0FF12060D7BFF7A05797DA1
:1001A600120542300455E534644D704FE564642C05
:1001B6007049E56B642C7043F50874302508F8E641
:1001C600FF74442508F582E43400F583EFF0050852
:1001D600E508B444E590007DE0F575A3E0F52B90C5
:1001E600007BE0F574A3E0F528900079E0F522A302
:1001F600E0F52D300103120289D20320000302002C
:1002060044200303020044B2A0C2037F801205F813
:100216007BFF7A05797F120542AF7512060DAF2B6B
:1002260012060D7F2D12060DAF7412060DAF2812A1
:10023600060D7F2D12060DAF2212060DAF2D1206EA
:100246000D7FC01205F87BFF7A0579821205429070
:100256000072E0FF12060D900073E0FF12060D908B
:100266000074E0FF12060D900075E0FF12060D9077
:100276000076E0FF12060D7BFF7A057989120542AA
:030286000200442F
:10028900E52275F00AA4252D24F1F529E57424D079
:1002990075F00AA4FFE52824D02FF524AF757E0058
:1002A9007C007D0A1203ECEF24F0FFEE3405FEE535
:1002B9002B24D0FDEC34FFCD2FF526ED3EF525ADF1
:1002C90026FCAF241204538F2FE529D3952F401410
:1002D9007529010524E524D3940C40080526E52653
:1002E90070020525E52975F00A842430F522E529EF
:1002F90075F00A84E5F02430F52DE52475F00A84BB
:100309002430F574E52475F00A84E5F02430F528E5
:10031900AE25AF267C007D641203FE7E007F0ACFE6
:10032900CDCFCECCCE1203FEEF2430F575AE25AF7E
:0E033900267C007D0A1203FEED2430F52B22F7
:10045300EF14B40C00504D90046875F003A4C583E9
:1004630025F0C5837302048C02049102048C0204F8
:10047300A402048C0204A402048C02048C0204A4CB
:1004830002048C0204A402048C75091F8016AF05B4
:10049300AE0412051B50047F1D80027F1C8F098050
:0604A3000375091EAF09FC
:0104A9002230
:10051B00AB07AA06EB5403700AFC7D641203FEEDD5
:10052B004C700FAE02AF037C017D901203FEED4CBD
:07053B007003D38001C3220D
:1005AD0020B6177F0A7E0012000320B60D30B6FD6F
:0B05BD00750C03B2007F011205F8224C
:10000300E4FDFCC3ED9FEC9E5015E4FBFA0BBB0033
:0F001300010AEB647B4A70F50DBD00010C80E41F
:0100220022BB
:1004B500012700012A00012300012E00012100016E
:1004C5002C00012400012900017400012800012DE0
:1004D50000012200017500012B0002250000C10466
:0304E500012F00E4
:1005C800759850D29CE4F587758920758DFD758BDB
:0805D800FDD28ED2AFD2AC229D
:030023000204E9EB
:0704E900C0E0C0D075D0187F
:1004F000E4C2ACAF99C298BF2404F527C204AE276A
:10050000052774302EF8A61FE527C3943B400575D8
:06051000273BD204D2AC2F
:05051600D0D0D0E0325E
:10058D00E4FDFCC3ED9FEC9E5015E4FBFA0BBB00A4
:0F059D00010AEB647B4A70F50DBD00010C80E490
:0105AC00222C
:1005F800A907C2A77F017E0012058DD2A5898012A6
:05060800058DC2A522D2
:10060D00A907D2A77F017E0012058D8980D2A51280
:05061D00058DC2A522BD
:100542008B098A0A890BAB09AA0AA90B1203D3FFEA
:10055200D39400401012060D7401250BF50BE435FF
:060562000AF50A80E12207
:1005E000C2A5C2A67F381205F87F0C1205F87F0657
:0805F0001205F87F010205F875
:03000000020347B1
:0C034700787FE4F6D8FD75817502038E06
:1003D300BB010689828A83E0225002E722BBFE0228
:0903E300E32289828A83E493225B
:1003EC00EF8DF0A4A8F0CF8CF0A428CE8DF0A42E25
:0203FC00FE22DF
:1003FE00BC000BBE0029EF8DF084FFADF022E4CCE3
:10040E00F875F008EF2FFFEE33FEEC33FCEE9DECAB
:10041E00984005FCEE9DFE0FD5F0E9E4CEFD22EDF1
:10042E00F8F5F0EE8420D21CFEADF075F008EF2F3B
:10043E00FFED33FD4007985006D5F0F222C398FD2C
:05044E000FD5F0EA22C9
:10035300020026E493A3F8E493A34003F68001F29A
:1003630008DFF48029E493A3F85407240CC8C333AB
:10037300C4540F4420C8834004F456800146F6DF7A
:10038300E4800B01020408102040809004AAE47E5C
:10039300019360BCA3FF543F30E509541FFEE4936F
:1003A300A360010ECF54C025E060A840B8E493A336
:1003B300FAE493A3F8E493A3C8C582C8CAC583CA61
:1003C300F0A3C8C582C8CAC583CADFE9DEE780BE19
:0104E8000013
:00000001FF
