:1004E200A1F9A1F9A1F9A1F9A1F9A1F9A1F9A1F93A
:1004F2000020202020BBB6D3ADCAB9D3C320202010
:100502002000D5FDD4DAB3F5CABCBBAF4750532E99
:100512002E2E00A1EF00CAB100B7D600C3EB00CE69
:10052200B3B6C8A3BA00A1E300272000BEADB6C887
:10053200A3BA00BAA3B0CEA3BA2020202000C3D70A
:1005420000323000C4EA00D4C200C8D500CBD9B60C
:06055200C8A3BA2020003E
:0B05AF00010A00C100C101C102C1032C
:10002600E4F5081206471207177F647E00120003E4
:100036007F8012072B7BFF7A0479E21207017F90FB
:1000460012072B7BFF7A0479F31207017F881207C8
:100056002B7BFF7A0579041207017F9812072B7B09
:10006600FF7A0479E21207011206E912066B3004E0
:1000760067E53464477061E536642C705BE53D6482
:100086002E7055F50874302508F8E6FF740025082B
:10009600F582E43400F583EFF00508E508B444E59D
:1000A600900007E075F00AA4FFA3E02F24F8F52AD4
:1000B600C39418400DE52A75F0188485F02AD201FC
:1000C6008002C201900009E0F523A3E0F52EA3E02B
:1000D600F521A3E0F52CD202300003020222200211
:1000E60003020222B2A0C2027F8012072B7BFF7A94
:1000F600057915120701E52A75F00A842430FF12E6
:1001060006D1E52A75F00A84E5F02430FF1206D1FF
:100116007BFF7A057918120701AF231206D1AF2E9D
:100126001206D17BFF7A05791B120701AF21120651
:10013600D1AF2C1206D17BFF7A05791E1207017BFF
:10014600FF7A0579151207017F9012072B7BFF7A3C
:1001560005792112070190001CE0FF1206D17F20CD
:100166001206D1900011E0FF1206D1900012E0FFB6
:100176001206D17BFF7A057928120701900013E059
:10018600FF1206D1900014E0FF1206D17BFF7A051C
:10019600792B1207017F8812072B7BFF7A05792EB0
:1001A60012070190002AE0FF1206D190001EE0FF20
:1001B6001206D190001FE0FF1206D1900020E0FF4A
:1001C6001206D17BFF7A057928120701900021E0FB
:1001D600FF1206D1900022E0FF1206D17BFF7A05BE
:1001E600792B1207017F9812072B7BFF7A05793549
:1001F600120701900036E0FF1206D1900037E0FFAB
:100206001206D1900038E0FF1206D1900039E0FFC7
:100216001206D17BFF7A057940120701300455E5B5
:1002260034644D704FE564642C7049E56B642C7042
:1002360043F50874302508F8E6FF74442508F5826E
:10024600E43400F583EFF00508E508B444E59000D2
:100256007DE0F575A3E0F52B90007BE0F574A3E057
:10026600F528900079E0F522A3E0F52D3001031280
:100276000318D20320000302007120030302007159
:10028600B2A0C2037F8012072B7BFF7A0579431247
:100296000701AF751206D1AF2B1206D17BFF7A0587
:1002A6007946120701AF741206D1AF281206D17B28
:1002B600FF7A057949120701AF221206D1AF2D1236
:1002C60006D17BFF7A05794C1207017F9012072B26
:1002D6007BFF7A05794F1207017F201206D1900025
:1002E60072E0FF1206D1900073E0FF1206D1900073
:1002F60074E0FF1206D1900075E0FF1206D190005F
:1003060076E0FF1206D17BFF7A05794012070102DB
:02031600007174
:10031800E52275F00AA4252D24F1F529E57424D0E9
:1003280075F00AA4FFE52824D02FF524AF757E00C8
:100338007C007D0A12047BEF24F0FFEE3405FEE515
:100348002B24D0FDEC34FFCD2FF526ED3EF525AD61
:1003580026FCAF241205588F2FE529D3952F40147A
:100368007529010524E524D3940C40080526E526C3
:1003780070020525E52975F00A842430F522E5295F
:1003880075F00A84E5F02430F52DE52475F00A842B
:100398002430F574E52475F00A84E5F02430F52856
:1003A800AE25AF267C007D6412048D7E007F0ACFC7
:1003B800CDCFCECCCE12048DEF2430F575AE25AF5F
:0E03C800267C007D0A12048DED2430F52B22D8
:10055800EF14B40C00504D90056D75F003A4C583DD
:1005680025F0C583730205910205960205910205DF
:10057800A90205910205A90205910205910205A9A2
:100588000205910205A902059175091F8016AF059C
:10059800AE0412062050047F1D80027F1C8F098044
:0605A8000375091EAF09F6
:0105AE00222A
:10062000AB07AA06EB5403700AFC7D6412048DED3F
:100630004C700FAE02AF037C017D9012048DED4C27
:070640007003D38001C32207
:10066B0020B6177F0A7E0012000320B60D30B6FDB0
:0B067B00750A04B2007F0112072B2259
:10000300E4FDFCC3ED9FEC9E5015E4FBFA0BBB0033
:0F001300010AEB647B4A70F50DBD00010C80E41F
:0100220022BB
:100686007580FFC2A7D2A6D2A5E58054806401601A
:09069600F8C2A5E4FF0FBF05FC4A
:01069F002238
:1006B900AE07120686C2A7C2A68E80D2A500000088
:0806C9000000000000C2A522A0
:10072B00C2A7C2A68F80D2A5000000000000000067
:03073B00C2A52232
:1006D100AE07120686D2A7C2A68E80D2A500000060
:0806E1000000000000C2A52288
:10070100120462FFD39400400C1206D1740129F93E
:06071100E43AFA80EB223D
:0706A0007F3012072B7F0AD7
:1006A700AD071FED600BE4FEEEC3947D50F20E80A4
:0106B700F74B
:0106B800221F
:100647007F641206A71206A01206A07F0C1206A24C
:100657007F0112072B7F1E1206A77F0612072B7F2B
:040667001E0206A7C2
:100717007F301206B97F0A1206A77F301206B97F0B
:040727000A0206A715
:1005BA00012700012A00012300012E000121000168
:1005CA002C00012400012900017400012800012DDA
:1005DA0000012200017500012B0002250000C10460
:0305EA00012F00DE
:1006E900759850D29CE4F587758920758DFD758BB9
:0806F900FDD28ED2AFD2AC227B
:030023000205EEE5
:0705EE00C0E0C0D075D01879
:1005F500E4C2ACAF99C298BF2404F527C204AE2764
:10060500052774302EF8A61FE527C3943B400575D2
:06061500273BD204D2AC29
:05061B00D0D0D0E03258
:030000000203D622
:0C03D600787FE4F6D8FD75817502041DE7
:10046200BB010689828A83E0225002E722BBFE0298
:09047200E32289828A83E49322CB
:10047B00EF8DF0A4A8F0CF8CF0A428CE8DF0A42E95
:02048B00FE224F
:10048D00BC000BBE0029EF8DF084FFADF022E4CC53
:10049D00F875F008EF2FFFEE33FEEC33FCEE9DEC1C
:1004AD00984005FCEE9DFE0FD5F0E9E4CEFD22ED62
:1004BD00F8F5F0EE8420D21CFEADF075F008EF2FAC
:1004CD00FFED33FD4007985006D5F0F222C398FD9D
:0504DD000FD5F0EA223A
:1003E200020026E493A3F8E493A34003F68001F20B
:1003F20008DFF48029E493A3F85407240CC8C3331C
:10040200C4540F4420C8834004F456800146F6DFEA
:10041200E4800B01020408102040809005AFE47EC6
:10042200019360BCA3FF543F30E509541FFEE493DF
:10043200A360010ECF54C025E060A840B8E493A3A6
:10044200FAE493A3F8E493A3C8C582C8CAC583CAD1
:10045200F0A3C8C582C8CAC583CADFE9DEE780BE89
:0105ED00000D
:00000001FF
